:100000000C9496000C9494020C946D020C9446028D
:100010000C941F020C94BE000C94BE000C94F801CA
:100020000C94BE000C94A6080C94BB020C942D03F7
:100030000C94BE000C94BE000C94BE000C94BE0048
:100040000C94BE000C94BE000C94BE000C94BE0038
:100050000C94BE000C94BE000C94BE000C94AE0137
:100060000C94BE000C94BE000C94BE000C94BE0018
:100070000C94BE000C94BE000C94BE000C94BE0008
:100080000C94BE000C94BE000C94BE000C94BE00F8
:100090000C947C070C94BE000C94BE000C94BE0023
:1000A0000C94BE000C94100A0C94BE00080B0002C5
:1000B0000202010009040000010202000005240000
:1000C0001001052401010104240206052406000193
:1000D0000705810310004009040100020A00000026
:1000E00007050202400000070583024000000403E8
:1000F000090412010002EF020140FB1F002300016E
:1001000001020301506F6C6F6C7520436F72706F4A
:10011000726174696F6E00506F6C6F6C7520412D49
:1001200053746172203332553400400C11241FBEC9
:10013000CFEFDAE0DEBFCDBF11E0A0E0B1E0ECE24E
:10014000F0E202C005900D92A638B107D9F722E07F
:10015000A6E8B1E001C01D92A039B207E1F710E0B6
:10016000C6E9D0E004C02197FE010E94E20DC53926
:10017000D107C9F70E94770C0C9414100C9400005E
:1001800080919D0181110DC082E08093990184E0EE
:1001900080939A0110929C0110929B0181E08093C0
:1001A0009D0189E991E008953FB7F8948091950108
:1001B00090919601A0919701B091980126B5A89BC6
:1001C00005C02F3F19F00196A11DB11D3FBFBA2FE9
:1001D000A92F982F8827820F911DA11DB11DBC0149
:1001E000CD0142E0660F771F881F991F4A95D1F70E
:1001F000089508950E94AE0EDF92EF92FF920F9342
:100200001F93CF93DF93D82E8A017B01E40EF51E56
:10021000EB01CE15DF0571F0D7FE03C0FE0184911E
:1002200001C088810E94410721968111F2CF8FEF92
:100230009FEF01C0C801DF91CF911F910F91FF90F7
:10024000EF90DF9008950F931F93CF93DF931F924A
:10025000CDB7DEB782E0898342E450E06CEA70E01B
:1002600080E80E94FC000E94C000DC0112960D9103
:100270001C9113970115110589F0D801ED91FC919E
:100280000280F381E02DBE016F5F7F4FC8010995A9
:1002900097FD04C0F80100851185ECCF89810F908E
:1002A000DF91CF911F910F91089520918D01211120
:1002B00003C08FEF9FEF08955FB7F89422E020937B
:1002C000E9002091F20030E01216130614F421E048
:1002D00030E0422FFC0184E6415038F028988093AA
:1002E0008C019091F1009193F7CF2115310521F008
:1002F0008091F200882319F05FBFC90108958BE651
:100300008093E800F9CF2FB7F89483E08093E90059
:100310009091E800892F807295FF04C09091F200BF
:1003200080E4891B2FBF0895CF92DF92EF92FF9256
:100330000E94D4006B017C010E94D400DC01CB013F
:100340008C199D09AE09BF09883E9340A105B105EE
:1003500098F3FF90EF90DF90CF9008951F920F9247
:100360000FB60F9211242F933F938F939F93AF93C8
:10037000BF938091910190919201A0919301B091CE
:1003800094013091900123E0230F2D3720F4019642
:10039000A11DB11D05C026E8230F0296A11DB11DA8
:1003A000209390018093910190939201A0939301E7
:1003B000B09394018091950190919601A09197013D
:1003C000B09198010196A11DB11D80939501909364
:1003D0009601A0939701B0939801BF91AF919F911F
:1003E0008F913F912F910F900FBE0F901F901895F6
:1003F0001F920F920FB60F9211242F933F934F939A
:100400005F936F937F938F939F93AF93BF93EF937C
:10041000FF93E0911401F09115010995FF91EF917F
:10042000BF91AF919F918F917F916F915F914F910C
:100430003F912F910F900FBE0F901F9018951F9214
:100440000F920FB60F9211242F933F934F935F9308
:100450006F937F938F939F93AF93BF93EF93FF938C
:10046000E0911201F09113010995FF91EF91BF9175
:10047000AF919F918F917F916F915F914F913F913C
:100480002F910F900FBE0F901F9018951F920F92F3
:100490000FB60F9211242F933F934F935F936F9357
:1004A0007F938F939F93AF93BF93EF93FF93E091CD
:1004B0001001F09111010995FF91EF91BF91AF915A
:1004C0009F918F917F916F915F914F913F912F916C
:1004D0000F900FBE0F901F9018951F920F920FB69E
:1004E0000F9211242F933F934F935F936F937F93BA
:1004F0008F939F93AF93BF93EF93FF93E0910E0180
:10050000F0910F010995FF91EF91BF91AF919F91EC
:100510008F917F916F915F914F913F912F910F90AC
:100520000FBE0F901F9018951F920F920FB60F924B
:1005300011242F933F934F935F936F937F938F93E8
:100540009F93AF93BF93EF93FF93E0910C01F091D2
:100550000D010995FF91EF91BF91AF919F918F91FF
:100560007F916F915F914F913F912F910F900FBEAF
:100570000F901F9018951F920F920FB60F92112493
:100580008F939F938091E1009091E100937F9093EE
:10059000E10083FF0FC01092E90091E09093EB001F
:1005A0001092EC0092E39093ED0010928D0198E090
:1005B0009093F00082FF20C093E09093E900909127
:1005C000F200992319F09AE39093E80090918A0140
:1005D000992339F090918A01915090938A0199233F
:1005E00089F190918C01992339F090918C0191506F
:1005F00090938C01992341F184FF10C08091E20017
:100600008E7E81608093E2008091E1008F7E8093F6
:10061000E10080918B018E7E806111C080FF16C049
:100620008091E2008E7E80618093E2008091E10003
:100630008E7E8093E10080918B018E7E816080931D
:100640008B0104C05D9ACDCF289AD6CF9F918F9110
:100650000F900FBE0F901F9018951F920F920FB61C
:100660000F921124CF92DF92EF92FF920F931F937C
:100670002F933F934F935F936F937F938F939F93AA
:10068000AF93BF93EF93FF93CF93DF93CDB7DEB7D5
:100690006C97DEBFCDBF1092E9008091E80083FF28
:1006A000FBC168E0CE0145960E946F0782EF809300
:1006B000E8008D8987FF05C09091E80090FFFCCF8E
:1006C00003C09EEF9093E800982F907609F0C6C083
:1006D0009E894F89588D2F89F88C91110CC08038D4
:1006E00029F480918F018093F10002C01092F100F3
:1006F0001092F10045C1913051F4811141C1413056
:10070000510509F03DC180918F018D7F0BC0933061
:1007100061F4811135C14130510509F031C1809139
:100720008F01826080938F012BC1953049F48091B5
:10073000E80080FFFCCF822F80688093E30020C117
:10074000963009F05EC00B8D1C8D22E01092E900FE
:100750001092890110928801F21232C01092870122
:10076000109286010E94230199E0BE016F5F7F4FC6
:10077000DB01E92F1D92EA95E9F79983FA8291E06E
:100780009E8390EA98879AEF99872091880130910B
:100790008901275F3F4F3C832B838D831092E900B3
:1007A00010928901109288011093870100938601AD
:1007B00049E050E080E00E94FC000E942301E0C07C
:1007C00010938701009386010E94C000DC011296FD
:1007D0000D911C9113970115110509F4BBC0D801A7
:1007E000ED91FC910480F581E02DBE016B5E7F4FA1
:1007F000C8010995009709F0C7C0F8010085118567
:10080000EACF973009F445C1983021F481E0809314
:10081000F100B6C0993009F0B3C0837009F039C156
:10082000E5E3F1E081E031E096E32081211109C0A8
:100830008EE78093EA001092EA008F8980938D0101
:100840009FC08093E9003093EB0021912093EC004E
:100850009093ED008F5F873041F7EACF8B8D9C8DB1
:100860001092E900109289011092880190938701FB
:1008700080938601898D811153C08E899D89913A1B
:1008800049F4813209F005C147E050E064E071E0CD
:1008900080E0BBC0913209F0FCC0833269F48F89DB
:1008A000988DA0E0B0E08093000190930101A093A7
:1008B0000201B093030164C0803269F48091E800C2
:1008C00082FFFCCF67E084E091E00E946F078BEF2E
:1008D0008093E80055C0823209F052C08F8980931E
:1008E0000B01EEEFFFE7859194918B3F9C4D19F042
:1008F000E0E0F8E002C0EEEFFAE0809104019091B0
:100900000501A0910601B0910701803B9440A1052B
:10091000B10509F09EC080910B0180FF79C099C09C
:100920000E94C000FC01028113810115110509F428
:10093000B0C0D801ED91FC910190F081E02DBE0195
:100940006B5E7F4FC801099581111AC0F8010085BF
:100950001185EBCFF1E0FF1609F44EC0F3E0FF1272
:1009600098C08F89882309F44AC0823089F440E80E
:1009700062E187E191E00E940B0C882309F489C0B1
:100980008EEF8093E80088C018161906CCF381C05A
:10099000813029F440E862E184E091E0ECCF8330DB
:1009A00009F077C00E94C000DC011296ED90FC9027
:1009B00013978E010F5F1F4F6801E114F10479F066
:1009C000D701ED91FC910680F781E02DB801C701B8
:1009D0000995080F111DF701E084F184EECFD801CD
:1009E0001C92F60101900020E9F73197BF016C19C4
:1009F0007D0940E0C601BFCF62EF70E002C06EEE3D
:100A000070E0FB01449150E080E80E94FC00B8CF08
:100A1000EE3F2AE0F20751F0808191818737A7E706
:100A20009A0721F09093FF0A8093FE0A87E797E7E1
:100A3000918380838091600080938E019BE088E1A8
:100A40000FB6F894A895809360000FBE9093600055
:100A500097CF808191818737974709F091CFA895EB
:100A60008091600088618093600080918E01809306
:100A70006000EE3FBAE0FB0739F08091FE0A9091EA
:100A8000FF0A918380837CCF1092FF0A1092FE0AA6
:100A900077CF81E28093EB006C960FB6F894DEBFBF
:100AA0000FBECDBFDF91CF91FF91EF91BF91AF917D
:100AB0009F918F917F916F915F914F913F912F9176
:100AC0001F910F91FF90EF90DF90CF900F900FBE8E
:100AD0000F901F901895CF92DF92EF92FF920F9395
:100AE0001F93CF93DF936C017A018B01C0E0D0E0BC
:100AF000CE15DF0581F0D8016D918D01D601ED9104
:100B0000FC910190F081E02DC6010995892B11F02F
:100B10002196EECF7E01C701DF91CF911F910F91FA
:100B2000FF90EF90DF90CF900895CF93DF931F92C7
:100B3000CDB7DEB76983DC01ED91FC910280F381D2
:100B4000E02D41E050E0BE016F5F7F4F09950F90AF
:100B5000DF91CF91089583E08093E9008091F200C6
:100B6000882319F08AE38093E8000895FC018485C6
:100B7000958597FD0BC09FB7F89482E08093E900BC
:100B80008091F2009FBF90E0019608959FB7F8947E
:100B900082E08093E9008091F2009FBF90E0089589
:100BA00085ED8093BC008091BC0084FDFCCF109249
:100BB0006602089540914202262F30E0240F311D35
:100BC00021323105DCF4209166022430C9F4FC01A5
:100BD00080E090E0861758F4309142022191DC01C8
:100BE000AE5DBD4FA30FB11D2C930196F3CF809145
:100BF0004202680F6093420280E0089581E0089508
:100C000082E0089508958FEF9FEF08958FEF9FEF93
:100C100008958091210290E0919581959109089520
:100C2000CF93DF93CB01EA01642F0E94DA05CE0156
:100C3000DF91CF910895CF93DF931F92CDB7DEB7A9
:100C4000698361E0CE0101960E94DA0581E090E0BF
:100C50000F90DF91CF910895089580E090E008957E
:100C600080911902E0911A02F0911B02882311F081
:100C7000849101C080819FEB980F9A3110F4805EBF
:100C80000895803269F420911A0230911B02A90163
:100C90004F5F5F4F50931B0240931A02232B01F7C3
:100CA00008951F93CF93DF930E943006C0E0D0E0F9
:100CB0001AE090ED980F9A30B8F41C9F90011D9F98
:100CC000300D1124E901C80FD11D87FDDA95E09799
:100CD00080911A0290911B02019690931B028093BF
:100CE0001A020E943006E5CFCE01DF91CF911F910D
:100CF00008958F929F92AF92BF92CF92DF92EF9220
:100D0000FF920F931F93CF93DF936C017B018A01B6
:100D100080910B01882309F458C080918D018823AC
:100D200009F453C080918B0180FF05C08091E000E1
:100D300082608093E000E801B12C8AEFA82E93E056
:100D4000892E2AE3922E209711F4BB20B9F10E943C
:100D50008301811106C0AA94AA20B9F10E949401CE
:100D6000F2CF282F30E0C217D3070CF48C2F9FB797
:100D7000F8948092E9002091E80025FF1DC0282FFB
:100D800030E0C21BD30BF701815020F0419140931A
:100D9000F100FACFE20EF31EBB2019F09092E800AA
:100DA0000AC08091E80085FD07C09092E800BB244E
:100DB000B394209709F0B12C9FBFC5CF5D9884E60E
:100DC00080938A011016110644F081E090E0F6014C
:100DD0009383828380E090E001C0C801DF91CF91CE
:100DE0001F910F91FF90EF90DF90CF90BF90AF9049
:100DF0009F908F9008950E94830190E008950F9333
:100E00001F93CF93DF931F92CDB7DEB78C01FC0108
:100E10008485958597FF0EC0CE0101960E945501ED
:100E2000019719F4898190E002C08FEF9FEFF801DC
:100E300095878487F801848595850F90DF91CF9100
:100E40001F910F910895CF93DF931F92CDB7DEB717
:100E5000FC018485958597FD05C02FEF3FEF358711
:100E600024870BC0CE0101960E945501019719F409
:100E7000898190E002C08FEF9FEF0F90DF91CF91BB
:100E80000895409188015091890120918601309107
:100E9000870142175307B4F49091E8009570E1F38D
:100EA0009091E80092FD19C08093F1008091880133
:100EB0009091890101968F739927892B19F48EEFF0
:100EC0008093E80080918801909189010196909328
:100ED00089018093880181E0089580E00895615040
:100EE00030F02091F100FC0120830196F8CF289882
:100EF00084E680938C0108951F920F920FB60F9293
:100F000011242F933F934F935F936F937F938F930E
:100F10009F93AF93BF93EF93FF938091B900887F26
:100F2000803609F49CC068F5883209F45BC090F4FF
:100F3000803109F454C038F4882309F4F2C08830B1
:100F400009F44DC0F2C0883109F44CC0803209F474
:100F50005DC0EBC0803409F468C048F4803309F404
:100F600055C0883309F0E1C080936502D4C0803554
:100F700009F44FC0883509F45DC0883409F0D5C044
:100F8000D2C0883909F4C3C0A8F4883709F467C00F
:100F900038F4883609F463C0803709F460C0C5C0EE
:100FA000883809F4B4C0803909F45FC0803809F08A
:100FB000BCC05BC0803B09F484C038F4803A09F4BB
:100FC00066C0883A09F47DC0B0C0803C09F4A3C073
:100FD000883C09F4A0C0883B09F486C0A6C0809173
:100FE0008B0210C090918A0280918902981770F547
:100FF000E0918A0281E08E0F80938A02F0E0E75947
:10100000FD4F80818093BB0085EC82C08093650298
:101010008AC0E0918A0281E08E0F80938A028091DB
:10102000BB00F0E0E759FD4F808390918A028091E8
:1010300089026AC0E0918A0281E08E0F80938A0261
:101040008091BB00F0E0E759FD4F808380916802FA
:10105000811169C081E08093670284EA5DC083E00A
:101060008093660210926402CFCF80916402803236
:1010700008F04DC0E091640281E08E0F809364021D
:101080008091BB00F0E0EC5BFD4F8083BDCF85EC31
:101090008093BC001092660280916402803230F42A
:1010A000E0916402F0E0EC5BFD4F1082609164021D
:1010B00070E084E492E0E0E0F0E0099510926402D0
:1010C00034C084E080936602109243021092420280
:1010D000E0E0F0E0099580914202811105C081E0D5
:1010E0008093420210922202E091430281E08E0F2F
:1010F00080934302F0E0EE5DFD4F80818093BB0062
:101100009091430280914202981708F47DCF85E8C0
:101110008093BC000AC085EC8093BC0010926602EC
:1011200004C0109265020E94D005FF91EF91BF911B
:10113000AF919F918F917F916F915F914F913F916F
:101140002F910F900FBE0F901F9018951F920F9226
:101150000FB60F9211242F933F934F935F936F938A
:101160007F938F939F938CB190E0959587959595FC
:101170008795482F417023B130E054E0359527958D
:101180005A95E1F782279327817020912002509190
:101190001F0260911D0270911E02982F9227292F25
:1011A00030E0952F9427291B3109260F371F3093E4
:1011B0001E0220931D0220911F029091200282178F
:1011C00029F0941719F091E090931C0280931F026C
:1011D000409320029F918F917F916F915F914F91EA
:1011E0003F912F910F900FBE0F901F9018952F9247
:1011F0003F924F925F926F927F928F929F92AF92A7
:10120000BF92CF92DF92EF92FF920F931F93CF93F3
:10121000DF93CDB7DEB727970FB6F894DEBF0FBECA
:10122000CDBF9F838E831B014D8380911602811158
:101230001BC081E080931602109272001092C000D1
:1012400094E09093C10099E09093C2008093C30012
:1012500083E08093BF0088EE8093D1001092BF009E
:101260001092D200579A789410922D012E813F81CE
:1012700037FF05C03F773F832E830AE001C001E0BE
:1012800088E2089F802D112490E04E815F814817ED
:10129000590708F4C2C0013039F44131574220F0F7
:1012A00020E137E23F832E83402E512C612C712C9C
:1012B0008E819F81969587959C0140E050E029831F
:1012C0003A834B835C834E815F814A01A12CB12C10
:1012D000A301920160E072E18AE790E00E94570D5D
:1012E00029813A814B815C81620F731F841F951F96
:1012F000A50194010E94870D69017A01EE24FF2463
:1013000010E01F5FC11434E0D306E104F10408F1DA
:1013100020E032E14AE750E0012E04C055954795A0
:10132000379527950A94D2F7C301B2010E94570D51
:1013300029813A814B815C81620F731F841F951F45
:10134000A50194010E94870D69017A01EE24FF2412
:10135000D8CF0A3049F48E819F8105966AE070E00B
:101360000E94730D7F836E834E815F81483E83E0D0
:10137000580759F09101DA010E94A60D28EE33E0DA
:1013800040E050E00E94870D190110927200809198
:10139000C100807F182B1093C100BB27AF2D9E2D5D
:1013A0008D2D8093BF00C092D1002D81203108F097
:1013B0002FE080E190E0821B910904C0F694E7944D
:1013C000D794C7948A95D2F78D2D99278093BF0023
:1013D000C092D200309218022092170289B38FEF88
:1013E00089BB84E08093720027960FB6F894DEBF25
:1013F0000FBECDBFDF91CF911F910F91FF90EF9066
:10140000DF90CF90BF90AF909F908F907F906F9024
:101410005F904F903F902F9008959F838E8344CF8D
:101420001F920F920FB60F9211246F927F928F929C
:101430009F92AF92BF92CF92DF92EF92FF920F9363
:101440001F932F933F934F935F936F937F938F934C
:101450009F93AF93BF93CF93DF93EF93FF938091CD
:101460001702909118029C01215031093093180203
:1014700020931702892B09F0AFC110927200789463
:101480008091C100807F84608093C10083E080935D
:10149000BF0088EE8093D1001092BF001092D2005E
:1014A00081E080932D0180911A0290911B02892B7B
:1014B00009F492C18091150281118EC190902C0186
:1014C00080911402882321F08091130281117AC146
:1014D0006624639480ECA82E8DE5B82E9AE0792ED0
:1014E00024E0822E30EDC32E37E0D32E44E0E42EEC
:1014F000F12C04EF11E0CFE0D0E00E943006209103
:101500001A0230911B022F5F3F4F30931B02209332
:101510001A02853609F45FC07CF5813609F49FC054
:1015200024F58C3309F452C08E3309F44DC0813256
:1015300009F090C080922C01D0922901C09228011C
:10154000F0922B01E0922A011093270100932601CB
:10155000D0932501C09324011092140290902C0185
:101560008091260190912701C8CF833609F47AC073
:101570007CF5E12C2BE078C08D36B1F16CF4873628
:1015800081F164F18C3609F065C00E945106909398
:101590002B0180932A014FC08237D9F14CF48F364A
:1015A00009F058C00E945106982E80932C01A5CFB7
:1015B000843791F1863709F04DC00E94510690930F
:1015C00025018093240199CF939497CF9A9495CF36
:1015D000E12C22E049C0E12C24E046C0E12C25E0CA
:1015E00043C0E12C27E040C00E9430068C3619F43D
:1015F0001092140204C0609214021092130280919F
:101600001A0290911B02019690931B0280931A027A
:1016100074CFEE24E39427C00E945106BC01C5019B
:101620000E94730D769EC001779E900D11249093B9
:1016300029018093280180912801909129016091CE
:101640002A0170912B010E94730D70932701609302
:10165000260153CF10921B0210921A02BDC0E12C3A
:1016600029E002C0E12C20E0F22E8CE0989EF00CE4
:1016700011240E943006982F977F933259F480915D
:101680001A0290911B02019690931B0280931A02FA
:10169000F394EFCF8D3269F480911A0290911B027E
:1016A000019690931B0280931A02FA940E943006CE
:1016B000F1CFC0912601D09127018153883058F491
:1016C000C0912801D09129010E945106BC01CE0190
:1016D0000E94730DEB018E01169507950E9430064E
:1016E0008E3261F480911A0290911B0201969093C0
:1016F0001B0280931A02C00FD11FEECF80911402FB
:10170000882349F0CE0196958795809313028091A6
:101710001302C81BD1090091240110912501E11089
:1017200005C09FEFF91611F0011105C040E0BE01A0
:1017300088EE93E044C080E18F1530F420EF2F0D48
:10174000203618F02FE501C020E0822F6CE00E94C7
:10175000670D30E09CE0899F2019310911242C305D
:10176000310540F4220F331FF901E15AFE4F208169
:10177000318102C020E030E0873081F0082E02C0C5
:10178000220F331F0A94E2F7823028F0C901059630
:101790006AE070E00CC0C90190580CC0C90156E065
:1017A000880F991F5A95E1F7029665E070E00E9454
:1017B000730DCB01402F003108F04FE0BE010E94B5
:1017C000F7080AC06091130270E040E088EE93E0F1
:1017D0000E94F70810921302FF91EF91DF91CF91D1
:1017E000BF91AF919F918F917F916F915F914F9139
:1017F0003F912F911F910F91FF90EF90DF90CF902D
:10180000BF90AF909F908F907F906F900F900FBE82
:101810000F901F901895DF92EF92FF920F931F93F6
:10182000CF93DF93D82EF92EE42E062F10E0C801B7
:101830000196880F0E94410783E00E944107CD2D49
:10184000DF2D0C0F1D1FC017D10789F0E7FE03C065
:10185000FE01849101C088810E944107F82E80E03A
:101860000E9441078F2121968111EDCF01C081E0B7
:10187000DF91CF911F910F91FF90EF90DF9008952E
:10188000E5EAF1E01382128288EE93E0A0E0B0E096
:1018900084839583A683B7832FE331E0318320834C
:1018A0002FEF3FEF35872487E5EFF1E013821282B7
:1018B00084839583A683B78381E591E091838083B8
:1018C000E1E0F2E01182108212828FEF83831582B1
:1018D0001482168285EA91E09287818782E492E001
:1018E0009487838784EA91E090878783089578942A
:1018F00084B5826084BD84B5816084BD85B5826015
:1019000085BD85B5816085BD80916E0081608093C5
:101910006E0010928100809181008260809381002E
:10192000809181008160809381008091800081603E
:1019300080938000809191008260809391008091DB
:1019400091008160809391008091900081608093EC
:1019500090008091C10084608093C1008091C1009B
:1019600082608093C1008091C10081608093C1003A
:101970008091C30081608093C3008091C000826029
:101980008093C0008091C20081608093C2008091EA
:101990007A00846080937A0080917A0082608093DC
:1019A0007A0080917A00816080937A0080917A0039
:1019B000806880937A0010928D0110928F011092AE
:1019C0008B018091D70081608093D70080EA80935B
:1019D000D80089B5806189BD89B5826089BD09B4A7
:1019E00000FEFDCF0E9494018091D8008F7C806121
:1019F0008093D8008091E000807F8093E000809108
:101A0000E1008E7E8093E1008DE08093E200559AA4
:101A1000209A4AE050E067E771E085EA91E00E9491
:101A2000790642E050E062E871E085EA91E00E94C8
:101A300079064FE068EC70E088EB91E00E94F708CF
:101A40008BE08093040263E070E08091010290914A
:101A500002020E94E80D009751F0909302028093D9
:101A6000010221E02093030226E1FC0120836EE0C5
:101A700070E080910502909106020E94E80D0097A7
:101A800079F02EE0E6E1F1E0DC0101900D922A957B
:101A9000E1F7909306028093050287E080930702A6
:101AA000C0E0D0E02097F1F30E940000FBCFDB0103
:101AB0008F939F930E94B50DBF91AF91A29F800D10
:101AC000911DA39F900DB29F900D11240895991B15
:101AD00079E004C0991F961708F0961B881F7A9525
:101AE000C9F780950895AA1BBB1B51E107C0AA1F27
:101AF000BB1FA617B70710F0A61BB70B881F991FAF
:101B00005A95A9F780959095BC01CD010895052EB1
:101B100097FB1EF400940E949E0D57FD07D00E9473
:101B2000C00D07FC03D04EF40C949E0D50954095CB
:101B3000309521953F4F4F4F5F4F08959095809579
:101B4000709561957F4F8F4F9F4F0895A29FB00171
:101B5000B39FC001A39F700D811D1124911DB29FE1
:101B6000700D811D1124911D08950E94A60DA59F41
:101B7000900DB49F900DA49F800D911D1124089588
:101B8000A1E21A2EAA1BBB1BFD010DC0AA1FBB1F81
:101B9000EE1FFF1FA217B307E407F50720F0A21BF3
:101BA000B30BE40BF50B661F771F881F991F1A9460
:101BB00069F760957095809590959B01AC01BD018A
:101BC000CF010895EE0FFF1F0590F491E02D0994C9
:101BD000A0E0B0E0EEEEFDE00C94E10FEC01009728
:101BE00021F4CB010E94BC0EB4C0FC01E60FF71F2C
:101BF0009C0122503109E217F30708F4A8C0D9016B
:101C00000D911C91119706171707B0F005301105BB
:101C100008F49BC0C80104978617970708F495C07D
:101C200002501109061B170B019311936D937C93BE
:101C3000CF010E94540F89C05B01A01AB10A4C0168
:101C4000800E911EA0918E02B0918F02612C712C9A
:101C5000E12CF12C109709F446C08D919C911197BD
:101C6000A815B905B1F56C0142E0C40ED11CCA1427
:101C7000DB0478F14C018A189B08640142E0C40E31
:101C8000D11C1296BC9012971396AC91B5E0CB166E
:101C9000D10440F0B282A38391828082D9016D93F6
:101CA0007C9309C00E5F1F4F800F911FF901918334
:101CB0008083EB2DFA2FE114F10431F0D701139654
:101CC000FC93EE93129741C0F0938F02E0938E0243
:101CD0003CC06816790608F43C017D0112960D900F
:101CE000BC91A02DB7CF80918C0290918D02881667
:101CF0009906E1F466167706C8F480912E0190915A
:101D00002F01009741F48DB79EB740913201509159
:101D10003301841B950BE817F907C8F4F0938D0283
:101D2000E0938C02F901718360830FC0CB010E94A4
:101D3000BC0E7C01009759F0A801BE010E94B30EB1
:101D4000CE010E94540FC70104C0CE0102C080E042
:101D500090E0CDB7DEB7EEE00C94FD0F81E090E0AF
:101D6000F8940C941410FB01DC0102C001900D9258
:101D700041505040D8F708950F931F93CF93DF93AE
:101D80008230910510F482E090E0E0918E02F091B3
:101D90008F0220E030E0A0E0B0E0309719F1408100
:101DA00051810281138148175907C8F0841795079C
:101DB00069F4109731F012960C93129713961C93B6
:101DC00027C000938E0210938F0222C02115310587
:101DD00019F04217530718F49A01BD01EF01DF0112
:101DE000F801DBCF21153105F9F0281B390B243020
:101DF000310580F48A819B816115710521F0FB0119
:101E00009383828304C090938F0280938E02FE019D
:101E1000329644C0FE01E20FF31F8193919322504A
:101E20003109398328833AC020918C0230918D0288
:101E3000232B41F4209130013091310130938D02F8
:101E400020938C0220912E0130912F012115310514
:101E500041F42DB73EB74091320150913301241B1C
:101E6000350BE0918C02F0918D02E217F307A0F49C
:101E70002E1B3F0B2817390778F0AC014E5F5F4FE0
:101E80002417350748F04E0F5F1F50938D02409383
:101E90008C028193919302C0E0E0F0E0CF01DF91EA
:101EA000CF911F910F910895CF93DF93009709F47D
:101EB00081C0FC01329713821282A0918E02B091F0
:101EC0008F02109781F420813181820F931F20911E
:101ED0008C0230918D022817390751F5F0938D024D
:101EE000E0938C0267C0ED0120E030E0CE17DF0701
:101EF00040F44A815B819E0141155105F1F0EA01F0
:101F0000F5CFD383C28340815181840F951FC817B9
:101F1000D90759F488819981840F951F029691837E
:101F200080838A819B81938382832115310529F4E3
:101F3000F0938F02E0938E023DC0E901FB83EA83B8
:101F400049915991C40FD51FEC17FD0761F48081A9
:101F50009181840F951F0296E9019983888382817C
:101F600093819B838A83E0E0F0E012968D919C91AF
:101F70001397009719F0FD01DC01F7CF8D919C912B
:101F800011979D012E5F3F4F820F931F20918C026E
:101F900030918D022817390769F4309729F410928F
:101FA0008F0210928E0202C013821282B0938D02B1
:101FB000A0938C02DF91CF9108952F923F924F9280
:101FC0005F926F927F928F929F92AF92BF92CF92C9
:101FD000DF92EF92FF920F931F93CF93DF93CDB7D2
:101FE000DEB7CA1BDB0B0FB6F894DEBF0FBECDBF4A
:101FF00009942A88398848885F846E847D848C841B
:102000009B84AA84B984C884DF80EE80FD800C8123
:102010001B81AA81B981CE0FD11D0FB6F894DEBF06
:0C2020000FBECDBFED010895F894FFCF76
:10202C00FFFFFFFF00E1000000000000F900F900D5
:10203C00F900F900F900010002000400080010008A
:10204C00200036000F00F401D0070400040100004A
:10205C009002800000C1808100000000000000950B
:10206C00057906FB06AB05B6052307FF0600000045
:10207C00001B0610062D0602060906060603069C22
:10208C0001B501CF01EA0107022602470269028E5F
:10209C0002B502DE020A0373746172746564207601
:0620AC0030000D0A0000E7
:00000001FF
